{
  "contractName": "EmployeeContract",
  "abi": [
    {
      "inputs": [],
      "stateMutability": "nonpayable",
      "type": "constructor"
    },
    {
      "anonymous": false,
      "inputs": [
        {
          "indexed": true,
          "internalType": "address",
          "name": "employeeAddress",
          "type": "address"
        },
        {
          "indexed": true,
          "internalType": "string",
          "name": "accountId",
          "type": "string"
        }
      ],
      "name": "EmployeeAdded",
      "type": "event"
    },
    {
      "anonymous": false,
      "inputs": [
        {
          "indexed": true,
          "internalType": "address",
          "name": "employeeAddress",
          "type": "address"
        },
        {
          "indexed": true,
          "internalType": "string",
          "name": "accountId",
          "type": "string"
        }
      ],
      "name": "EmployeeDeleted",
      "type": "event"
    },
    {
      "anonymous": false,
      "inputs": [
        {
          "indexed": true,
          "internalType": "address",
          "name": "employeeAddress",
          "type": "address"
        },
        {
          "indexed": true,
          "internalType": "string",
          "name": "accountId",
          "type": "string"
        }
      ],
      "name": "EmployeeUpdated",
      "type": "event"
    },
    {
      "anonymous": false,
      "inputs": [
        {
          "indexed": false,
          "internalType": "uint256",
          "name": "amount",
          "type": "uint256"
        },
        {
          "indexed": false,
          "internalType": "uint256",
          "name": "datePaid",
          "type": "uint256"
        },
        {
          "indexed": false,
          "internalType": "address",
          "name": "employeeAddress",
          "type": "address"
        }
      ],
      "name": "SalaryPaid",
      "type": "event"
    },
    {
      "inputs": [],
      "name": "empCount",
      "outputs": [
        {
          "internalType": "uint256",
          "name": "",
          "type": "uint256"
        }
      ],
      "stateMutability": "view",
      "type": "function",
      "constant": true
    },
    {
      "inputs": [
        {
          "internalType": "address",
          "name": "",
          "type": "address"
        }
      ],
      "name": "employeeAddressList",
      "outputs": [
        {
          "internalType": "address",
          "name": "employeeAddress",
          "type": "address"
        },
        {
          "internalType": "string",
          "name": "accountId",
          "type": "string"
        },
        {
          "internalType": "string",
          "name": "picture",
          "type": "string"
        },
        {
          "internalType": "string",
          "name": "password",
          "type": "string"
        },
        {
          "internalType": "string",
          "name": "name",
          "type": "string"
        },
        {
          "internalType": "uint256",
          "name": "salary",
          "type": "uint256"
        },
        {
          "internalType": "string",
          "name": "department",
          "type": "string"
        },
        {
          "internalType": "string",
          "name": "role",
          "type": "string"
        },
        {
          "internalType": "enum EmployeeContract.empStatus",
          "name": "status",
          "type": "uint8"
        },
        {
          "internalType": "bool",
          "name": "isHR",
          "type": "bool"
        }
      ],
      "stateMutability": "view",
      "type": "function",
      "constant": true
    },
    {
      "inputs": [
        {
          "internalType": "uint256",
          "name": "",
          "type": "uint256"
        }
      ],
      "name": "employeeList",
      "outputs": [
        {
          "internalType": "address",
          "name": "employeeAddress",
          "type": "address"
        },
        {
          "internalType": "string",
          "name": "accountId",
          "type": "string"
        },
        {
          "internalType": "string",
          "name": "picture",
          "type": "string"
        },
        {
          "internalType": "string",
          "name": "password",
          "type": "string"
        },
        {
          "internalType": "string",
          "name": "name",
          "type": "string"
        },
        {
          "internalType": "uint256",
          "name": "salary",
          "type": "uint256"
        },
        {
          "internalType": "string",
          "name": "department",
          "type": "string"
        },
        {
          "internalType": "string",
          "name": "role",
          "type": "string"
        },
        {
          "internalType": "enum EmployeeContract.empStatus",
          "name": "status",
          "type": "uint8"
        },
        {
          "internalType": "bool",
          "name": "isHR",
          "type": "bool"
        }
      ],
      "stateMutability": "view",
      "type": "function",
      "constant": true
    },
    {
      "inputs": [
        {
          "internalType": "string",
          "name": "",
          "type": "string"
        }
      ],
      "name": "employees",
      "outputs": [
        {
          "internalType": "address",
          "name": "employeeAddress",
          "type": "address"
        },
        {
          "internalType": "string",
          "name": "accountId",
          "type": "string"
        },
        {
          "internalType": "string",
          "name": "picture",
          "type": "string"
        },
        {
          "internalType": "string",
          "name": "password",
          "type": "string"
        },
        {
          "internalType": "string",
          "name": "name",
          "type": "string"
        },
        {
          "internalType": "uint256",
          "name": "salary",
          "type": "uint256"
        },
        {
          "internalType": "string",
          "name": "department",
          "type": "string"
        },
        {
          "internalType": "string",
          "name": "role",
          "type": "string"
        },
        {
          "internalType": "enum EmployeeContract.empStatus",
          "name": "status",
          "type": "uint8"
        },
        {
          "internalType": "bool",
          "name": "isHR",
          "type": "bool"
        }
      ],
      "stateMutability": "view",
      "type": "function",
      "constant": true
    },
    {
      "inputs": [
        {
          "internalType": "address",
          "name": "",
          "type": "address"
        }
      ],
      "name": "pastEmployees",
      "outputs": [
        {
          "internalType": "address",
          "name": "employeeAddress",
          "type": "address"
        },
        {
          "internalType": "string",
          "name": "accountId",
          "type": "string"
        },
        {
          "internalType": "string",
          "name": "picture",
          "type": "string"
        },
        {
          "internalType": "string",
          "name": "password",
          "type": "string"
        },
        {
          "internalType": "string",
          "name": "name",
          "type": "string"
        },
        {
          "internalType": "uint256",
          "name": "salary",
          "type": "uint256"
        },
        {
          "internalType": "string",
          "name": "department",
          "type": "string"
        },
        {
          "internalType": "string",
          "name": "role",
          "type": "string"
        },
        {
          "internalType": "enum EmployeeContract.empStatus",
          "name": "status",
          "type": "uint8"
        },
        {
          "internalType": "bool",
          "name": "isHR",
          "type": "bool"
        }
      ],
      "stateMutability": "view",
      "type": "function",
      "constant": true
    },
    {
      "inputs": [
        {
          "internalType": "uint256",
          "name": "",
          "type": "uint256"
        }
      ],
      "name": "salaries",
      "outputs": [
        {
          "internalType": "uint256",
          "name": "amount",
          "type": "uint256"
        },
        {
          "internalType": "uint256",
          "name": "datePaid",
          "type": "uint256"
        },
        {
          "internalType": "address",
          "name": "employeeAddress",
          "type": "address"
        }
      ],
      "stateMutability": "view",
      "type": "function",
      "constant": true
    },
    {
      "inputs": [
        {
          "internalType": "address",
          "name": "",
          "type": "address"
        }
      ],
      "name": "salaryDetails",
      "outputs": [
        {
          "internalType": "uint256",
          "name": "amount",
          "type": "uint256"
        },
        {
          "internalType": "uint256",
          "name": "datePaid",
          "type": "uint256"
        },
        {
          "internalType": "address",
          "name": "employeeAddress",
          "type": "address"
        }
      ],
      "stateMutability": "view",
      "type": "function",
      "constant": true
    },
    {
      "inputs": [],
      "name": "totalSalaryPaid",
      "outputs": [
        {
          "internalType": "uint256",
          "name": "",
          "type": "uint256"
        }
      ],
      "stateMutability": "view",
      "type": "function",
      "constant": true
    },
    {
      "inputs": [
        {
          "internalType": "address",
          "name": "_employeeAddress",
          "type": "address"
        },
        {
          "internalType": "string",
          "name": "_accountId",
          "type": "string"
        },
        {
          "internalType": "string",
          "name": "_picture",
          "type": "string"
        },
        {
          "internalType": "string",
          "name": "_password",
          "type": "string"
        },
        {
          "internalType": "string",
          "name": "_name",
          "type": "string"
        },
        {
          "internalType": "uint256",
          "name": "_salary",
          "type": "uint256"
        },
        {
          "internalType": "string",
          "name": "_department",
          "type": "string"
        },
        {
          "internalType": "string",
          "name": "_role",
          "type": "string"
        },
        {
          "internalType": "bool",
          "name": "_isHR",
          "type": "bool"
        }
      ],
      "name": "addEmployee",
      "outputs": [],
      "stateMutability": "nonpayable",
      "type": "function"
    },
    {
      "inputs": [
        {
          "internalType": "string",
          "name": "id",
          "type": "string"
        }
      ],
      "name": "terminateEmp",
      "outputs": [],
      "stateMutability": "nonpayable",
      "type": "function"
    },
    {
      "inputs": [
        {
          "internalType": "address",
          "name": "_employeeAddress",
          "type": "address"
        },
        {
          "internalType": "string",
          "name": "_accountId",
          "type": "string"
        },
        {
          "internalType": "string",
          "name": "_name",
          "type": "string"
        },
        {
          "internalType": "uint256",
          "name": "_salary",
          "type": "uint256"
        },
        {
          "internalType": "string",
          "name": "_department",
          "type": "string"
        },
        {
          "internalType": "string",
          "name": "_role",
          "type": "string"
        }
      ],
      "name": "updateEmployee",
      "outputs": [],
      "stateMutability": "nonpayable",
      "type": "function"
    },
    {
      "inputs": [
        {
          "internalType": "address",
          "name": "_employeeAddress",
          "type": "address"
        }
      ],
      "name": "getEmployee",
      "outputs": [
        {
          "internalType": "address",
          "name": "",
          "type": "address"
        },
        {
          "internalType": "string",
          "name": "",
          "type": "string"
        },
        {
          "internalType": "string",
          "name": "",
          "type": "string"
        },
        {
          "internalType": "uint256",
          "name": "",
          "type": "uint256"
        },
        {
          "internalType": "string",
          "name": "",
          "type": "string"
        },
        {
          "internalType": "string",
          "name": "",
          "type": "string"
        },
        {
          "internalType": "bool",
          "name": "",
          "type": "bool"
        },
        {
          "internalType": "bool",
          "name": "",
          "type": "bool"
        }
      ],
      "stateMutability": "view",
      "type": "function",
      "constant": true
    },
    {
      "inputs": [
        {
          "internalType": "string",
          "name": "_accountId",
          "type": "string"
        }
      ],
      "name": "accountExists",
      "outputs": [
        {
          "internalType": "bool",
          "name": "",
          "type": "bool"
        }
      ],
      "stateMutability": "view",
      "type": "function",
      "constant": true
    },
    {
      "inputs": [
        {
          "internalType": "string",
          "name": "accountId",
          "type": "string"
        }
      ],
      "name": "paySalary",
      "outputs": [],
      "stateMutability": "payable",
      "type": "function",
      "payable": true
    },
    {
      "inputs": [],
      "name": "getSalariesPaid",
      "outputs": [
        {
          "components": [
            {
              "internalType": "uint256",
              "name": "amount",
              "type": "uint256"
            },
            {
              "internalType": "uint256",
              "name": "datePaid",
              "type": "uint256"
            },
            {
              "internalType": "address",
              "name": "employeeAddress",
              "type": "address"
            }
          ],
          "internalType": "struct EmployeeContract.Salary[]",
          "name": "",
          "type": "tuple[]"
        }
      ],
      "stateMutability": "view",
      "type": "function",
      "constant": true
    },
    {
      "inputs": [
        {
          "internalType": "string",
          "name": "_accountId",
          "type": "string"
        }
      ],
      "name": "getEmployeeAddress",
      "outputs": [
        {
          "internalType": "address",
          "name": "",
          "type": "address"
        }
      ],
      "stateMutability": "view",
      "type": "function",
      "constant": true
    },
    {
      "inputs": [],
      "name": "getAllEmployees",
      "outputs": [
        {
          "components": [
            {
              "internalType": "address",
              "name": "employeeAddress",
              "type": "address"
            },
            {
              "internalType": "string",
              "name": "accountId",
              "type": "string"
            },
            {
              "internalType": "string",
              "name": "picture",
              "type": "string"
            },
            {
              "internalType": "string",
              "name": "password",
              "type": "string"
            },
            {
              "internalType": "string",
              "name": "name",
              "type": "string"
            },
            {
              "internalType": "uint256",
              "name": "salary",
              "type": "uint256"
            },
            {
              "internalType": "string",
              "name": "department",
              "type": "string"
            },
            {
              "internalType": "string",
              "name": "role",
              "type": "string"
            },
            {
              "internalType": "enum EmployeeContract.empStatus",
              "name": "status",
              "type": "uint8"
            },
            {
              "internalType": "bool",
              "name": "isHR",
              "type": "bool"
            }
          ],
          "internalType": "struct EmployeeContract.Employee[]",
          "name": "",
          "type": "tuple[]"
        }
      ],
      "stateMutability": "view",
      "type": "function",
      "constant": true
    },
    {
      "inputs": [],
      "name": "getCompanyName",
      "outputs": [
        {
          "internalType": "string",
          "name": "",
          "type": "string"
        }
      ],
      "stateMutability": "view",
      "type": "function",
      "constant": true
    },
    {
      "inputs": [],
      "name": "getEmpCount",
      "outputs": [
        {
          "internalType": "uint256",
          "name": "",
          "type": "uint256"
        }
      ],
      "stateMutability": "view",
      "type": "function",
      "constant": true
    },
    {
      "inputs": [
        {
          "internalType": "string",
          "name": "id",
          "type": "string"
        }
      ],
      "name": "getEmpSalary",
      "outputs": [
        {
          "internalType": "uint256",
          "name": "",
          "type": "uint256"
        }
      ],
      "stateMutability": "view",
      "type": "function",
      "constant": true
    },
    {
      "inputs": [],
      "name": "getSalaryPaidCount",
      "outputs": [
        {
          "internalType": "uint256",
          "name": "",
          "type": "uint256"
        }
      ],
      "stateMutability": "view",
      "type": "function",
      "constant": true
    },
    {
      "inputs": [
        {
          "internalType": "address",
          "name": "_employeeAddress",
          "type": "address"
        }
      ],
      "name": "getEmpBalance",
      "outputs": [
        {
          "internalType": "uint256",
          "name": "",
          "type": "uint256"
        }
      ],
      "stateMutability": "view",
      "type": "function",
      "constant": true
    },
    {
      "inputs": [
        {
          "internalType": "address",
          "name": "_employeeAddress",
          "type": "address"
        }
      ],
      "name": "getEmployeeStatusByAddress",
      "outputs": [
        {
          "internalType": "enum EmployeeContract.empStatus",
          "name": "",
          "type": "uint8"
        }
      ],
      "stateMutability": "view",
      "type": "function",
      "constant": true
    }
  ],
  "bytecode": "0x6080604052600080553480156200001557600080fd5b50600080819055506000600160006101000a81548160ff02191690836001811115620000465762000045620000a0565b5b02179055506040518060400160405280601881526020017f50617950726f205265736f757263657320507465204c746400000000000000008152506002908162000091919062000349565b50600060038190555062000430565b7f4e487b7100000000000000000000000000000000000000000000000000000000600052602160045260246000fd5b600081519050919050565b7f4e487b7100000000000000000000000000000000000000000000000000000000600052604160045260246000fd5b7f4e487b7100000000000000000000000000000000000000000000000000000000600052602260045260246000fd5b600060028204905060018216806200015157607f821691505b60208210810362000167576200016662000109565b5b50919050565b60008190508160005260206000209050919050565b60006020601f8301049050919050565b600082821b905092915050565b600060088302620001d17fffffffffffffffffffffffffffffffffffffffffffffffffffffffffffffffff8262000192565b620001dd868362000192565b95508019841693508086168417925050509392505050565b6000819050919050565b6000819050919050565b60006200022a620002246200021e84620001f5565b620001ff565b620001f5565b9050919050565b6000819050919050565b620002468362000209565b6200025e620002558262000231565b8484546200019f565b825550505050565b600090565b6200027562000266565b620002828184846200023b565b505050565b5b81811015620002aa576200029e6000826200026b565b60018101905062000288565b5050565b601f821115620002f957620002c3816200016d565b620002ce8462000182565b81016020851015620002de578190505b620002f6620002ed8562000182565b83018262000287565b50505b505050565b600082821c905092915050565b60006200031e60001984600802620002fe565b1980831691505092915050565b60006200033983836200030b565b9150826002028217905092915050565b6200035482620000cf565b67ffffffffffffffff81111562000370576200036f620000da565b5b6200037c825462000138565b62000389828285620002ae565b600060209050601f831160018114620003c15760008415620003ac578287015190505b620003b885826200032b565b86555062000428565b601f198416620003d1866200016d565b60005b82811015620003fb57848901518255600182019150602085019450602081019050620003d4565b868310156200041b578489015162000417601f8916826200030b565b8355505b6001600288020188555050505b505050505050565b613f5780620004406000396000f3fe6080604052600436106101405760003560e01c806376e8cca9116100b6578063b4ed0b9d1161006f578063b4ed0b9d146104de578063bc4c3e8d14610524578063c3b2d07a1461054f578063e3366fed14610595578063fc59890c146105c0578063fcd45c1c146105eb57610140565b806376e8cca9146103b55780638b5901f9146103f257806391803b4c1461040e578063923bb7881461044b57806396ca9b2914610476578063ae8b5b8b146104b357610140565b80634a1ac170116101085780634a1ac170146102605780634b156fd4146102a657806356934f67146102e557806358bdf66c146103225780635eb0badb1461034d578063610addba1461037657610140565b806308ebaf0b1461014557806332648e091461018b5780633f4646da146101cf57806343cfbd651461020c57806344a2c60b14610237575b600080fd5b34801561015157600080fd5b5061016c60048036038101906101679190612e50565b610614565b6040516101829a99989796959493929190612fc7565b60405180910390f35b34801561019757600080fd5b506101b260048036038101906101ad9190612e50565b6109d2565b6040516101c698979695949392919061308d565b60405180910390f35b3480156101db57600080fd5b506101f660048036038101906101f19190612e50565b610cf3565b6040516102039190613127565b60405180910390f35b34801561021857600080fd5b50610221610d14565b60405161022e9190613142565b60405180910390f35b34801561024357600080fd5b5061025e60048036038101906102599190613299565b610da6565b005b34801561026c57600080fd5b5061028760048036038101906102829190612e50565b610df9565b60405161029d9a99989796959493929190612fc7565b60405180910390f35b3480156102b257600080fd5b506102cd60048036038101906102c89190612e50565b6111b7565b6040516102dc939291906132e2565b60405180910390f35b3480156102f157600080fd5b5061030c60048036038101906103079190613299565b611201565b6040516103199190613319565b60405180910390f35b34801561032e57600080fd5b5061033761124c565b6040516103449190613127565b60405180910390f35b34801561035957600080fd5b50610374600480360381019061036f9190613360565b611255565b005b34801561038257600080fd5b5061039d6004803603810190610398919061345d565b61132a565b6040516103ac939291906132e2565b60405180910390f35b3480156103c157600080fd5b506103dc60048036038101906103d79190613299565b611384565b6040516103e99190613127565b60405180910390f35b61040c60048036038101906104079190613299565b6113af565b005b34801561041a57600080fd5b5061043560048036038101906104309190613299565b611ad0565b604051610442919061348a565b60405180910390f35b34801561045757600080fd5b50610460611b84565b60405161046d91906135b4565b60405180910390f35b34801561048257600080fd5b5061049d60048036038101906104989190612e50565b611c4d565b6040516104aa91906135d6565b60405180910390f35b3480156104bf57600080fd5b506104c8611cab565b6040516104d59190613127565b60405180910390f35b3480156104ea57600080fd5b5061050560048036038101906105009190613299565b611cb5565b60405161051b9a99989796959493929190612fc7565b60405180910390f35b34801561053057600080fd5b50610539612089565b6040516105469190613127565b60405180910390f35b34801561055b57600080fd5b506105766004803603810190610571919061345d565b61208f565b60405161058c9a99989796959493929190612fc7565b60405180910390f35b3480156105a157600080fd5b506105aa61245d565b6040516105b79190613818565b60405180910390f35b3480156105cc57600080fd5b506105d56128df565b6040516105e29190613127565b60405180910390f35b3480156105f757600080fd5b50610612600480360381019061060d9190613866565b6128e5565b005b60076020528060005260406000206000915090508060000160009054906101000a900473ffffffffffffffffffffffffffffffffffffffff169080600101805461065d90613a07565b80601f016020809104026020016040519081016040528092919081815260200182805461068990613a07565b80156106d65780601f106106ab576101008083540402835291602001916106d6565b820191906000526020600020905b8154815290600101906020018083116106b957829003601f168201915b5050505050908060020180546106eb90613a07565b80601f016020809104026020016040519081016040528092919081815260200182805461071790613a07565b80156107645780601f1061073957610100808354040283529160200191610764565b820191906000526020600020905b81548152906001019060200180831161074757829003601f168201915b50505050509080600301805461077990613a07565b80601f01602080910402602001604051908101604052809291908181526020018280546107a590613a07565b80156107f25780601f106107c7576101008083540402835291602001916107f2565b820191906000526020600020905b8154815290600101906020018083116107d557829003601f168201915b50505050509080600401805461080790613a07565b80601f016020809104026020016040519081016040528092919081815260200182805461083390613a07565b80156108805780601f1061085557610100808354040283529160200191610880565b820191906000526020600020905b81548152906001019060200180831161086357829003601f168201915b50505050509080600501549080600601805461089b90613a07565b80601f01602080910402602001604051908101604052809291908181526020018280546108c790613a07565b80156109145780601f106108e957610100808354040283529160200191610914565b820191906000526020600020905b8154815290600101906020018083116108f757829003601f168201915b50505050509080600701805461092990613a07565b80601f016020809104026020016040519081016040528092919081815260200182805461095590613a07565b80156109a25780601f10610977576101008083540402835291602001916109a2565b820191906000526020600020905b81548152906001019060200180831161098557829003601f168201915b5050505050908060080160009054906101000a900460ff16908060080160019054906101000a900460ff1690508a565b600060608060006060806000806000600860008b73ffffffffffffffffffffffffffffffffffffffff1673ffffffffffffffffffffffffffffffffffffffff16815260200190815260200160002090508060000160009054906101000a900473ffffffffffffffffffffffffffffffffffffffff168160010182600401836005015484600601856007018660080160019054906101000a900460ff1660006001811115610a8257610a81612f35565b5b8860080160009054906101000a900460ff166001811115610aa657610aa5612f35565b5b14868054610ab390613a07565b80601f0160208091040260200160405190810160405280929190818152602001828054610adf90613a07565b8015610b2c5780601f10610b0157610100808354040283529160200191610b2c565b820191906000526020600020905b815481529060010190602001808311610b0f57829003601f168201915b50505050509650858054610b3f90613a07565b80601f0160208091040260200160405190810160405280929190818152602001828054610b6b90613a07565b8015610bb85780601f10610b8d57610100808354040283529160200191610bb8565b820191906000526020600020905b815481529060010190602001808311610b9b57829003601f168201915b50505050509550838054610bcb90613a07565b80601f0160208091040260200160405190810160405280929190818152602001828054610bf790613a07565b8015610c445780601f10610c1957610100808354040283529160200191610c44565b820191906000526020600020905b815481529060010190602001808311610c2757829003601f168201915b50505050509350828054610c5790613a07565b80601f0160208091040260200160405190810160405280929190818152602001828054610c8390613a07565b8015610cd05780601f10610ca557610100808354040283529160200191610cd0565b820191906000526020600020905b815481529060010190602001808311610cb357829003601f168201915b505050505092509850985098509850985098509850985050919395975091939597565b60008173ffffffffffffffffffffffffffffffffffffffff16319050919050565b606060028054610d2390613a07565b80601f0160208091040260200160405190810160405280929190818152602001828054610d4f90613a07565b8015610d9c5780601f10610d7157610100808354040283529160200191610d9c565b820191906000526020600020905b815481529060010190602001808311610d7f57829003601f168201915b5050505050905090565b6000600682604051610db89190613a74565b9081526020016040518091039020905060018160080160006101000a81548160ff02191690836001811115610df057610def612f35565b5b02179055505050565b60086020528060005260406000206000915090508060000160009054906101000a900473ffffffffffffffffffffffffffffffffffffffff1690806001018054610e4290613a07565b80601f0160208091040260200160405190810160405280929190818152602001828054610e6e90613a07565b8015610ebb5780601f10610e9057610100808354040283529160200191610ebb565b820191906000526020600020905b815481529060010190602001808311610e9e57829003601f168201915b505050505090806002018054610ed090613a07565b80601f0160208091040260200160405190810160405280929190818152602001828054610efc90613a07565b8015610f495780601f10610f1e57610100808354040283529160200191610f49565b820191906000526020600020905b815481529060010190602001808311610f2c57829003601f168201915b505050505090806003018054610f5e90613a07565b80601f0160208091040260200160405190810160405280929190818152602001828054610f8a90613a07565b8015610fd75780601f10610fac57610100808354040283529160200191610fd7565b820191906000526020600020905b815481529060010190602001808311610fba57829003601f168201915b505050505090806004018054610fec90613a07565b80601f016020809104026020016040519081016040528092919081815260200182805461101890613a07565b80156110655780601f1061103a57610100808354040283529160200191611065565b820191906000526020600020905b81548152906001019060200180831161104857829003601f168201915b50505050509080600501549080600601805461108090613a07565b80601f01602080910402602001604051908101604052809291908181526020018280546110ac90613a07565b80156110f95780601f106110ce576101008083540402835291602001916110f9565b820191906000526020600020905b8154815290600101906020018083116110dc57829003601f168201915b50505050509080600701805461110e90613a07565b80601f016020809104026020016040519081016040528092919081815260200182805461113a90613a07565b80156111875780601f1061115c57610100808354040283529160200191611187565b820191906000526020600020905b81548152906001019060200180831161116a57829003601f168201915b5050505050908060080160009054906101000a900460ff16908060080160019054906101000a900460ff1690508a565b60056020528060005260406000206000915090508060000154908060010154908060020160009054906101000a900473ffffffffffffffffffffffffffffffffffffffff16905083565b60006006826040516112139190613a74565b908152602001604051809103902060000160009054906101000a900473ffffffffffffffffffffffffffffffffffffffff169050919050565b60008054905090565b60006006866040516112679190613a74565b90815260200160405180910390209050858160010190816112889190613c37565b508481600401908161129a9190613c37565b50838160050181905550828160060190816112b59190613c37565b50818160070190816112c79190613c37565b50856040516112d69190613a74565b60405180910390208773ffffffffffffffffffffffffffffffffffffffff167f32eb48055943e22500ac14ca556af63cc769613a3987571e464b3766996815ad60405160405180910390a350505050505050565b6004818154811061133a57600080fd5b90600052602060002090600302016000915090508060000154908060010154908060020160009054906101000a900473ffffffffffffffffffffffffffffffffffffffff16905083565b60006006826040516113969190613a74565b9081526020016040518091039020600501549050919050565b60006006826040516113c19190613a74565b9081526020016040518091039020604051806101400160405290816000820160009054906101000a900473ffffffffffffffffffffffffffffffffffffffff1673ffffffffffffffffffffffffffffffffffffffff1673ffffffffffffffffffffffffffffffffffffffff16815260200160018201805461144190613a07565b80601f016020809104026020016040519081016040528092919081815260200182805461146d90613a07565b80156114ba5780601f1061148f576101008083540402835291602001916114ba565b820191906000526020600020905b81548152906001019060200180831161149d57829003601f168201915b505050505081526020016002820180546114d390613a07565b80601f01602080910402602001604051908101604052809291908181526020018280546114ff90613a07565b801561154c5780601f106115215761010080835404028352916020019161154c565b820191906000526020600020905b81548152906001019060200180831161152f57829003601f168201915b5050505050815260200160038201805461156590613a07565b80601f016020809104026020016040519081016040528092919081815260200182805461159190613a07565b80156115de5780601f106115b3576101008083540402835291602001916115de565b820191906000526020600020905b8154815290600101906020018083116115c157829003601f168201915b505050505081526020016004820180546115f790613a07565b80601f016020809104026020016040519081016040528092919081815260200182805461162390613a07565b80156116705780601f1061164557610100808354040283529160200191611670565b820191906000526020600020905b81548152906001019060200180831161165357829003601f168201915b505050505081526020016005820154815260200160068201805461169390613a07565b80601f01602080910402602001604051908101604052809291908181526020018280546116bf90613a07565b801561170c5780601f106116e15761010080835404028352916020019161170c565b820191906000526020600020905b8154815290600101906020018083116116ef57829003601f168201915b5050505050815260200160078201805461172590613a07565b80601f016020809104026020016040519081016040528092919081815260200182805461175190613a07565b801561179e5780601f106117735761010080835404028352916020019161179e565b820191906000526020600020905b81548152906001019060200180831161178157829003601f168201915b505050505081526020016008820160009054906101000a900460ff1660018111156117cc576117cb612f35565b5b60018111156117de576117dd612f35565b5b81526020016008820160019054906101000a900460ff1615151515815250509050600073ffffffffffffffffffffffffffffffffffffffff16816000015173ffffffffffffffffffffffffffffffffffffffff1603611872576040517f08c379a000000000000000000000000000000000000000000000000000000000815260040161186990613d55565b60405180910390fd5b8060a001513410156118b9576040517f08c379a00000000000000000000000000000000000000000000000000000000081526004016118b090613dc1565b60405180910390fd5b600081600001519050600034905060006040518060600160405280838152602001428152602001856000015173ffffffffffffffffffffffffffffffffffffffff1681525090508273ffffffffffffffffffffffffffffffffffffffff166108fc839081150290604051600060405180830381858888f19350505050158015611946573d6000803e3d6000fd5b506004819080600181540180825580915050600190039060005260206000209060030201600090919091909150600082015181600001556020820151816001015560408201518160020160006101000a81548173ffffffffffffffffffffffffffffffffffffffff021916908373ffffffffffffffffffffffffffffffffffffffff16021790555050508060056000866000015173ffffffffffffffffffffffffffffffffffffffff1673ffffffffffffffffffffffffffffffffffffffff168152602001908152602001600020600082015181600001556020820151816001015560408201518160020160006101000a81548173ffffffffffffffffffffffffffffffffffffffff021916908373ffffffffffffffffffffffffffffffffffffffff16021790555090505060036000815480929190611a8590613e10565b91905055507faabb79afe48efaa1259bea95d4e68e3e7d9783d94d02bc98a0bd8577f428971882428660000151604051611ac1939291906132e2565b60405180910390a15050505050565b6000806000905060005b600980549050811015611b7a5783604051602001611af89190613a74565b6040516020818303038152906040528051906020012060098281548110611b2257611b21613e58565b5b9060005260206000209060090201600101604051602001611b439190613f0a565b6040516020818303038152906040528051906020012003611b675760019150611b7a565b8080611b7290613e10565b915050611ada565b5080915050919050565b60606004805480602002602001604051908101604052809291908181526020016000905b82821015611c44578382906000526020600020906003020160405180606001604052908160008201548152602001600182015481526020016002820160009054906101000a900473ffffffffffffffffffffffffffffffffffffffff1673ffffffffffffffffffffffffffffffffffffffff1673ffffffffffffffffffffffffffffffffffffffff168152505081526020019060010190611ba8565b50505050905090565b600080600860008473ffffffffffffffffffffffffffffffffffffffff1673ffffffffffffffffffffffffffffffffffffffff16815260200190815260200160002090508060080160009054906101000a900460ff16915050919050565b6000600354905090565b6006818051602081018201805184825260208301602085012081835280955050505050506000915090508060000160009054906101000a900473ffffffffffffffffffffffffffffffffffffffff1690806001018054611d1490613a07565b80601f0160208091040260200160405190810160405280929190818152602001828054611d4090613a07565b8015611d8d5780601f10611d6257610100808354040283529160200191611d8d565b820191906000526020600020905b815481529060010190602001808311611d7057829003601f168201915b505050505090806002018054611da290613a07565b80601f0160208091040260200160405190810160405280929190818152602001828054611dce90613a07565b8015611e1b5780601f10611df057610100808354040283529160200191611e1b565b820191906000526020600020905b815481529060010190602001808311611dfe57829003601f168201915b505050505090806003018054611e3090613a07565b80601f0160208091040260200160405190810160405280929190818152602001828054611e5c90613a07565b8015611ea95780601f10611e7e57610100808354040283529160200191611ea9565b820191906000526020600020905b815481529060010190602001808311611e8c57829003601f168201915b505050505090806004018054611ebe90613a07565b80601f0160208091040260200160405190810160405280929190818152602001828054611eea90613a07565b8015611f375780601f10611f0c57610100808354040283529160200191611f37565b820191906000526020600020905b815481529060010190602001808311611f1a57829003601f168201915b505050505090806005015490806006018054611f5290613a07565b80601f0160208091040260200160405190810160405280929190818152602001828054611f7e90613a07565b8015611fcb5780601f10611fa057610100808354040283529160200191611fcb565b820191906000526020600020905b815481529060010190602001808311611fae57829003601f168201915b505050505090806007018054611fe090613a07565b80601f016020809104026020016040519081016040528092919081815260200182805461200c90613a07565b80156120595780601f1061202e57610100808354040283529160200191612059565b820191906000526020600020905b81548152906001019060200180831161203c57829003601f168201915b5050505050908060080160009054906101000a900460ff16908060080160019054906101000a900460ff1690508a565b60035481565b6009818154811061209f57600080fd5b90600052602060002090600902016000915090508060000160009054906101000a900473ffffffffffffffffffffffffffffffffffffffff16908060010180546120e890613a07565b80601f016020809104026020016040519081016040528092919081815260200182805461211490613a07565b80156121615780601f1061213657610100808354040283529160200191612161565b820191906000526020600020905b81548152906001019060200180831161214457829003601f168201915b50505050509080600201805461217690613a07565b80601f01602080910402602001604051908101604052809291908181526020018280546121a290613a07565b80156121ef5780601f106121c4576101008083540402835291602001916121ef565b820191906000526020600020905b8154815290600101906020018083116121d257829003601f168201915b50505050509080600301805461220490613a07565b80601f016020809104026020016040519081016040528092919081815260200182805461223090613a07565b801561227d5780601f106122525761010080835404028352916020019161227d565b820191906000526020600020905b81548152906001019060200180831161226057829003601f168201915b50505050509080600401805461229290613a07565b80601f01602080910402602001604051908101604052809291908181526020018280546122be90613a07565b801561230b5780601f106122e05761010080835404028352916020019161230b565b820191906000526020600020905b8154815290600101906020018083116122ee57829003601f168201915b50505050509080600501549080600601805461232690613a07565b80601f016020809104026020016040519081016040528092919081815260200182805461235290613a07565b801561239f5780601f106123745761010080835404028352916020019161239f565b820191906000526020600020905b81548152906001019060200180831161238257829003601f168201915b5050505050908060070180546123b490613a07565b80601f01602080910402602001604051908101604052809291908181526020018280546123e090613a07565b801561242d5780601f106124025761010080835404028352916020019161242d565b820191906000526020600020905b81548152906001019060200180831161241057829003601f168201915b5050505050908060080160009054906101000a900460ff16908060080160019054906101000a900460ff1690508a565b60606009805480602002602001604051908101604052809291908181526020016000905b828210156128d65783829060005260206000209060090201604051806101400160405290816000820160009054906101000a900473ffffffffffffffffffffffffffffffffffffffff1673ffffffffffffffffffffffffffffffffffffffff1673ffffffffffffffffffffffffffffffffffffffff16815260200160018201805461250b90613a07565b80601f016020809104026020016040519081016040528092919081815260200182805461253790613a07565b80156125845780601f1061255957610100808354040283529160200191612584565b820191906000526020600020905b81548152906001019060200180831161256757829003601f168201915b5050505050815260200160028201805461259d90613a07565b80601f01602080910402602001604051908101604052809291908181526020018280546125c990613a07565b80156126165780601f106125eb57610100808354040283529160200191612616565b820191906000526020600020905b8154815290600101906020018083116125f957829003601f168201915b5050505050815260200160038201805461262f90613a07565b80601f016020809104026020016040519081016040528092919081815260200182805461265b90613a07565b80156126a85780601f1061267d576101008083540402835291602001916126a8565b820191906000526020600020905b81548152906001019060200180831161268b57829003601f168201915b505050505081526020016004820180546126c190613a07565b80601f01602080910402602001604051908101604052809291908181526020018280546126ed90613a07565b801561273a5780601f1061270f5761010080835404028352916020019161273a565b820191906000526020600020905b81548152906001019060200180831161271d57829003601f168201915b505050505081526020016005820154815260200160068201805461275d90613a07565b80601f016020809104026020016040519081016040528092919081815260200182805461278990613a07565b80156127d65780601f106127ab576101008083540402835291602001916127d6565b820191906000526020600020905b8154815290600101906020018083116127b957829003601f168201915b505050505081526020016007820180546127ef90613a07565b80601f016020809104026020016040519081016040528092919081815260200182805461281b90613a07565b80156128685780601f1061283d57610100808354040283529160200191612868565b820191906000526020600020905b81548152906001019060200180831161284b57829003601f168201915b505050505081526020016008820160009054906101000a900460ff16600181111561289657612895612f35565b5b60018111156128a8576128a7612f35565b5b81526020016008820160019054906101000a900460ff16151515158152505081526020019060010190612481565b50505050905090565b60005481565b60006040518061014001604052808b73ffffffffffffffffffffffffffffffffffffffff1681526020018a81526020018981526020018881526020018781526020018681526020018581526020018481526020016000600181111561294d5761294c612f35565b5b81526020018315158152509050600981908060018154018082558091505060019003906000526020600020906009020160009091909190915060008201518160000160006101000a81548173ffffffffffffffffffffffffffffffffffffffff021916908373ffffffffffffffffffffffffffffffffffffffff16021790555060208201518160010190816129e29190613c37565b5060408201518160020190816129f89190613c37565b506060820151816003019081612a0e9190613c37565b506080820151816004019081612a249190613c37565b5060a0820151816005015560c0820151816006019081612a449190613c37565b5060e0820151816007019081612a5a9190613c37565b506101008201518160080160006101000a81548160ff02191690836001811115612a8757612a86612f35565b5b02179055506101208201518160080160016101000a81548160ff02191690831515021790555050508060068a604051612ac09190613a74565b908152602001604051809103902060008201518160000160006101000a81548173ffffffffffffffffffffffffffffffffffffffff021916908373ffffffffffffffffffffffffffffffffffffffff1602179055506020820151816001019081612b2a9190613c37565b506040820151816002019081612b409190613c37565b506060820151816003019081612b569190613c37565b506080820151816004019081612b6c9190613c37565b5060a0820151816005015560c0820151816006019081612b8c9190613c37565b5060e0820151816007019081612ba29190613c37565b506101008201518160080160006101000a81548160ff02191690836001811115612bcf57612bce612f35565b5b02179055506101208201518160080160016101000a81548160ff02191690831515021790555090505080600860008c73ffffffffffffffffffffffffffffffffffffffff1673ffffffffffffffffffffffffffffffffffffffff16815260200190815260200160002060008201518160000160006101000a81548173ffffffffffffffffffffffffffffffffffffffff021916908373ffffffffffffffffffffffffffffffffffffffff1602179055506020820151816001019081612c949190613c37565b506040820151816002019081612caa9190613c37565b506060820151816003019081612cc09190613c37565b506080820151816004019081612cd69190613c37565b5060a0820151816005015560c0820151816006019081612cf69190613c37565b5060e0820151816007019081612d0c9190613c37565b506101008201518160080160006101000a81548160ff02191690836001811115612d3957612d38612f35565b5b02179055506101208201518160080160016101000a81548160ff021916908315150217905550905050600080815480929190612d7490613e10565b919050555088604051612d879190613a74565b60405180910390208a73ffffffffffffffffffffffffffffffffffffffff167f88f573da530a15bcd26d991f12ed95c157a183024a775dcccd317998426c4ce460405160405180910390a350505050505050505050565b6000604051905090565b600080fd5b600080fd5b600073ffffffffffffffffffffffffffffffffffffffff82169050919050565b6000612e1d82612df2565b9050919050565b612e2d81612e12565b8114612e3857600080fd5b50565b600081359050612e4a81612e24565b92915050565b600060208284031215612e6657612e65612de8565b5b6000612e7484828501612e3b565b91505092915050565b612e8681612e12565b82525050565b600081519050919050565b600082825260208201905092915050565b60005b83811015612ec6578082015181840152602081019050612eab565b60008484015250505050565b6000601f19601f8301169050919050565b6000612eee82612e8c565b612ef88185612e97565b9350612f08818560208601612ea8565b612f1181612ed2565b840191505092915050565b6000819050919050565b612f2f81612f1c565b82525050565b7f4e487b7100000000000000000000000000000000000000000000000000000000600052602160045260246000fd5b60028110612f7557612f74612f35565b5b50565b6000819050612f8682612f64565b919050565b6000612f9682612f78565b9050919050565b612fa681612f8b565b82525050565b60008115159050919050565b612fc181612fac565b82525050565b600061014082019050612fdd600083018d612e7d565b8181036020830152612fef818c612ee3565b90508181036040830152613003818b612ee3565b90508181036060830152613017818a612ee3565b9050818103608083015261302b8189612ee3565b905061303a60a0830188612f26565b81810360c083015261304c8187612ee3565b905081810360e08301526130608186612ee3565b9050613070610100830185612f9d565b61307e610120830184612fb8565b9b9a5050505050505050505050565b6000610100820190506130a3600083018b612e7d565b81810360208301526130b5818a612ee3565b905081810360408301526130c98189612ee3565b90506130d86060830188612f26565b81810360808301526130ea8187612ee3565b905081810360a08301526130fe8186612ee3565b905061310d60c0830185612fb8565b61311a60e0830184612fb8565b9998505050505050505050565b600060208201905061313c6000830184612f26565b92915050565b6000602082019050818103600083015261315c8184612ee3565b905092915050565b600080fd5b600080fd5b7f4e487b7100000000000000000000000000000000000000000000000000000000600052604160045260246000fd5b6131a682612ed2565b810181811067ffffffffffffffff821117156131c5576131c461316e565b5b80604052505050565b60006131d8612dde565b90506131e4828261319d565b919050565b600067ffffffffffffffff8211156132045761320361316e565b5b61320d82612ed2565b9050602081019050919050565b82818337600083830152505050565b600061323c613237846131e9565b6131ce565b90508281526020810184848401111561325857613257613169565b5b61326384828561321a565b509392505050565b600082601f8301126132805761327f613164565b5b8135613290848260208601613229565b91505092915050565b6000602082840312156132af576132ae612de8565b5b600082013567ffffffffffffffff8111156132cd576132cc612ded565b5b6132d98482850161326b565b91505092915050565b60006060820190506132f76000830186612f26565b6133046020830185612f26565b6133116040830184612e7d565b949350505050565b600060208201905061332e6000830184612e7d565b92915050565b61333d81612f1c565b811461334857600080fd5b50565b60008135905061335a81613334565b92915050565b60008060008060008060c0878903121561337d5761337c612de8565b5b600061338b89828a01612e3b565b965050602087013567ffffffffffffffff8111156133ac576133ab612ded565b5b6133b889828a0161326b565b955050604087013567ffffffffffffffff8111156133d9576133d8612ded565b5b6133e589828a0161326b565b94505060606133f689828a0161334b565b935050608087013567ffffffffffffffff81111561341757613416612ded565b5b61342389828a0161326b565b92505060a087013567ffffffffffffffff81111561344457613443612ded565b5b61345089828a0161326b565b9150509295509295509295565b60006020828403121561347357613472612de8565b5b60006134818482850161334b565b91505092915050565b600060208201905061349f6000830184612fb8565b92915050565b600081519050919050565b600082825260208201905092915050565b6000819050602082019050919050565b6134da81612f1c565b82525050565b6134e981612e12565b82525050565b60608201600082015161350560008501826134d1565b50602082015161351860208501826134d1565b50604082015161352b60408501826134e0565b50505050565b600061353d83836134ef565b60608301905092915050565b6000602082019050919050565b6000613561826134a5565b61356b81856134b0565b9350613576836134c1565b8060005b838110156135a757815161358e8882613531565b975061359983613549565b92505060018101905061357a565b5085935050505092915050565b600060208201905081810360008301526135ce8184613556565b905092915050565b60006020820190506135eb6000830184612f9d565b92915050565b600081519050919050565b600082825260208201905092915050565b6000819050602082019050919050565b600082825260208201905092915050565b600061363982612e8c565b613643818561361d565b9350613653818560208601612ea8565b61365c81612ed2565b840191505092915050565b61367081612f8b565b82525050565b61367f81612fac565b82525050565b60006101408301600083015161369e60008601826134e0565b50602083015184820360208601526136b6828261362e565b915050604083015184820360408601526136d0828261362e565b915050606083015184820360608601526136ea828261362e565b91505060808301518482036080860152613704828261362e565b91505060a083015161371960a08601826134d1565b5060c083015184820360c0860152613731828261362e565b91505060e083015184820360e086015261374b828261362e565b915050610100830151613762610100860182613667565b50610120830151613777610120860182613676565b508091505092915050565b600061378e8383613685565b905092915050565b6000602082019050919050565b60006137ae826135f1565b6137b881856135fc565b9350836020820285016137ca8561360d565b8060005b8581101561380657848403895281516137e78582613782565b94506137f283613796565b925060208a019950506001810190506137ce565b50829750879550505050505092915050565b6000602082019050818103600083015261383281846137a3565b905092915050565b61384381612fac565b811461384e57600080fd5b50565b6000813590506138608161383a565b92915050565b60008060008060008060008060006101208a8c03121561388957613888612de8565b5b60006138978c828d01612e3b565b99505060208a013567ffffffffffffffff8111156138b8576138b7612ded565b5b6138c48c828d0161326b565b98505060408a013567ffffffffffffffff8111156138e5576138e4612ded565b5b6138f18c828d0161326b565b97505060608a013567ffffffffffffffff81111561391257613911612ded565b5b61391e8c828d0161326b565b96505060808a013567ffffffffffffffff81111561393f5761393e612ded565b5b61394b8c828d0161326b565b95505060a061395c8c828d0161334b565b94505060c08a013567ffffffffffffffff81111561397d5761397c612ded565b5b6139898c828d0161326b565b93505060e08a013567ffffffffffffffff8111156139aa576139a9612ded565b5b6139b68c828d0161326b565b9250506101006139c88c828d01613851565b9150509295985092959850929598565b7f4e487b7100000000000000000000000000000000000000000000000000000000600052602260045260246000fd5b60006002820490506001821680613a1f57607f821691505b602082108103613a3257613a316139d8565b5b50919050565b600081905092915050565b6000613a4e82612e8c565b613a588185613a38565b9350613a68818560208601612ea8565b80840191505092915050565b6000613a808284613a43565b915081905092915050565b60008190508160005260206000209050919050565b60006020601f8301049050919050565b600082821b905092915050565b600060088302613aed7fffffffffffffffffffffffffffffffffffffffffffffffffffffffffffffffff82613ab0565b613af78683613ab0565b95508019841693508086168417925050509392505050565b6000819050919050565b6000613b34613b2f613b2a84612f1c565b613b0f565b612f1c565b9050919050565b6000819050919050565b613b4e83613b19565b613b62613b5a82613b3b565b848454613abd565b825550505050565b600090565b613b77613b6a565b613b82818484613b45565b505050565b5b81811015613ba657613b9b600082613b6f565b600181019050613b88565b5050565b601f821115613beb57613bbc81613a8b565b613bc584613aa0565b81016020851015613bd4578190505b613be8613be085613aa0565b830182613b87565b50505b505050565b600082821c905092915050565b6000613c0e60001984600802613bf0565b1980831691505092915050565b6000613c278383613bfd565b9150826002028217905092915050565b613c4082612e8c565b67ffffffffffffffff811115613c5957613c5861316e565b5b613c638254613a07565b613c6e828285613baa565b600060209050601f831160018114613ca15760008415613c8f578287015190505b613c998582613c1b565b865550613d01565b601f198416613caf86613a8b565b60005b82811015613cd757848901518255600182019150602085019450602081019050613cb2565b86831015613cf45784890151613cf0601f891682613bfd565b8355505b6001600288020188555050505b505050505050565b7f456d706c6f796565206e6f7420666f756e640000000000000000000000000000600082015250565b6000613d3f601283612e97565b9150613d4a82613d09565b602082019050919050565b60006020820190508181036000830152613d6e81613d32565b9050919050565b7f496e636f72726563742073616c61727920616d6f756e74000000000000000000600082015250565b6000613dab601783612e97565b9150613db682613d75565b602082019050919050565b60006020820190508181036000830152613dda81613d9e565b9050919050565b7f4e487b7100000000000000000000000000000000000000000000000000000000600052601160045260246000fd5b6000613e1b82612f1c565b91507fffffffffffffffffffffffffffffffffffffffffffffffffffffffffffffffff8203613e4d57613e4c613de1565b5b600182019050919050565b7f4e487b7100000000000000000000000000000000000000000000000000000000600052603260045260246000fd5b60008154613e9481613a07565b613e9e8186613a38565b94506001821660008114613eb95760018114613ece57613f01565b60ff1983168652811515820286019350613f01565b613ed785613a8b565b60005b83811015613ef957815481890152600182019150602081019050613eda565b838801955050505b50505092915050565b6000613f168284613e87565b91508190509291505056fea2646970667358221220994827f72af23ccb6a27a1127a0d2ee7683624f75a178fa293248fa39e9d399d64736f6c63430008120033",
  "immutableReferences": {},
  "source": "// SPDX-License-Identifier: MIT\r\npragma solidity ^0.8.18;\r\n\r\ncontract EmployeeContract {\r\n    enum empStatus {\r\n        active,\r\n        inactive\r\n    }\r\n    uint256 public empCount = 0;\r\n    empStatus status;\r\n    string companyName;\r\n    uint256 public totalSalaryPaid;\r\n\r\n    struct Employee {\r\n        address employeeAddress;\r\n        string accountId;\r\n        string picture;\r\n        string password;\r\n        string name;\r\n        uint256 salary;\r\n        string department;\r\n        string role;\r\n        empStatus status;\r\n        bool isHR;\r\n    }\r\n\r\n    struct Salary {\r\n        uint256 amount;\r\n        uint256 datePaid;\r\n        address employeeAddress;\r\n    }\r\n\r\n    Salary[] public salaries;\r\n    mapping(address => Salary) public salaryDetails;\r\n\r\n    event SalaryPaid(uint256 amount, uint256 datePaid, address employeeAddress);\r\n\r\n    constructor() {\r\n        empCount = 0;\r\n        status = empStatus.active;\r\n        companyName = \"PayPro Resources Pte Ltd\";\r\n        totalSalaryPaid = 0;\r\n    }\r\n\r\n    mapping(string => Employee) public employees;\r\n    mapping(address => Employee) public pastEmployees;\r\n    mapping(address => Employee) public employeeAddressList;\r\n    Employee[] public employeeList;\r\n\r\n    event EmployeeAdded(\r\n        address indexed employeeAddress,\r\n        string indexed accountId\r\n    );\r\n    event EmployeeDeleted(\r\n        address indexed employeeAddress,\r\n        string indexed accountId\r\n    );\r\n    event EmployeeUpdated(\r\n        address indexed employeeAddress,\r\n        string indexed accountId\r\n    );\r\n\r\n    function addEmployee(\r\n        address _employeeAddress,\r\n        string memory _accountId,\r\n        string memory _picture,\r\n        string memory _password,\r\n        string memory _name,\r\n        uint256 _salary,\r\n        string memory _department,\r\n        string memory _role,\r\n        bool _isHR\r\n    ) public {\r\n        Employee memory employee = Employee({\r\n            employeeAddress: _employeeAddress,\r\n            accountId: _accountId,\r\n            picture: _picture,\r\n            password: _password,\r\n            name: _name,\r\n            salary: _salary,\r\n            department: _department,\r\n            role: _role,\r\n            status: empStatus.active,\r\n            isHR: _isHR\r\n        });\r\n        employeeList.push(employee);\r\n        employees[_accountId] = employee;\r\n        employeeAddressList[_employeeAddress] = employee;\r\n        empCount++;\r\n\r\n        emit EmployeeAdded(_employeeAddress, _accountId);\r\n    }\r\n\r\n    function terminateEmp(string memory id) public {\r\n        Employee storage emp = employees[id];\r\n        emp.status = empStatus.inactive;\r\n        \r\n    }\r\n\r\n\r\n    function updateEmployee(\r\n        address _employeeAddress,\r\n        string memory _accountId,\r\n        string memory _name,\r\n        uint256 _salary,\r\n        string memory _department,\r\n        string memory _role\r\n    ) public {\r\n        Employee storage employee = employees[_accountId];\r\n        employee.accountId = _accountId;\r\n        employee.name = _name;\r\n        employee.salary = _salary;\r\n        employee.department = _department;\r\n        employee.role = _role;\r\n\r\n        emit EmployeeUpdated(_employeeAddress, _accountId);\r\n    }\r\n\r\n    function getEmployee(\r\n        address _employeeAddress\r\n    )\r\n        public\r\n        view\r\n        returns (\r\n            address,\r\n            string memory,\r\n            string memory,\r\n            uint256,\r\n            string memory,\r\n            string memory,\r\n            bool,\r\n            bool\r\n        )\r\n    {\r\n        Employee storage employee = employeeAddressList[_employeeAddress];\r\n        return (\r\n            employee.employeeAddress,\r\n            employee.accountId,\r\n            employee.name,\r\n            employee.salary,\r\n            employee.department,\r\n            employee.role,\r\n            employee.isHR,\r\n            employee.status == empStatus.active\r\n        );\r\n    }\r\n\r\n    function accountExists(\r\n        string memory _accountId\r\n    ) public view returns (bool) {\r\n        bool accountFound = false;\r\n\r\n        for (uint256 i = 0; i < employeeList.length; i++) {\r\n            if (\r\n                keccak256(abi.encodePacked(employeeList[i].accountId)) ==\r\n                keccak256(abi.encodePacked(_accountId))\r\n            ) {\r\n                accountFound = true;\r\n                break;\r\n            }\r\n        }\r\n\r\n        return accountFound;\r\n    }\r\n\r\n    function paySalary(string memory accountId) public payable {\r\n        // Retrieve the employee details using the account ID\r\n        Employee memory employee = employees[accountId];\r\n\r\n        // Ensure that the employee exists and the amount sent is greater than or equal to the employee's salary\r\n        require(employee.employeeAddress != address(0), \"Employee not found\");\r\n        require(msg.value >= employee.salary, \"Incorrect salary amount\");\r\n\r\n        address payable employeeAddress = payable(employee.employeeAddress);\r\n\r\n        // Perform the salary payment\r\n        uint256 salaryAmount = msg.value;\r\n        Salary memory newSalary = Salary(\r\n            salaryAmount,\r\n            block.timestamp,\r\n            employee.employeeAddress\r\n        );\r\n        employeeAddress.transfer(salaryAmount);\r\n\r\n        // Update salary-related mappings and arrays\r\n        salaries.push(newSalary);\r\n        salaryDetails[employee.employeeAddress] = newSalary;\r\n        totalSalaryPaid++;\r\n\r\n        // Emit the SalaryPaid event\r\n        emit SalaryPaid(\r\n            salaryAmount,\r\n            block.timestamp,\r\n            employee.employeeAddress\r\n        );\r\n    }\r\n\r\n    function getSalariesPaid() public view returns (Salary[] memory) {\r\n        return salaries;\r\n    }\r\n\r\n    function getEmployeeAddress(\r\n        string memory _accountId\r\n    ) public view returns (address) {\r\n        return employees[_accountId].employeeAddress;\r\n    }\r\n\r\n    function getAllEmployees() public view returns (Employee[] memory) {\r\n        return employeeList;\r\n    }\r\n\r\n    function getCompanyName() public view returns (string memory) {\r\n        return companyName;\r\n    }\r\n\r\n    function getEmpCount() public view returns (uint256) {\r\n        return empCount;\r\n    }\r\n\r\n    function getEmpSalary(string memory id) public view returns (uint256) {\r\n        return employees[id].salary;\r\n    }\r\n\r\n    function getSalaryPaidCount() public view returns (uint256) {\r\n        return totalSalaryPaid;\r\n    }\r\n\r\n    function getEmpBalance(\r\n        address _employeeAddress\r\n    ) public view returns (uint256) {\r\n        return _employeeAddress.balance;\r\n    }\r\n\r\n    function getEmployeeStatusByAddress(address _employeeAddress) public view returns (empStatus) {\r\n    Employee storage employee = employeeAddressList[_employeeAddress];\r\n    return employee.status;\r\n}\r\n\r\n\r\n\r\n    \r\n}\r\n",
  "sourcePath": "C:\\RP\\Past Mods\\Y2S2\\C373\\GA\\Paypro Resources Revamp\\contracts\\EmployeeContract.sol",
  "compiler": {
    "name": "solc",
    "version": "0.8.18+commit.87f61d96.Emscripten.clang"
  },
  "schemaVersion": "3.4.16",
  "updatedAt": "2024-04-25T01:52:33.017Z",
  "networkType": "ethereum",
  "devdoc": {
    "kind": "dev",
    "methods": {},
    "version": 1
  },
  "userdoc": {
    "kind": "user",
    "methods": {},
    "version": 1
  }
}